:100000000C94DD000C9405010C9405010C94050181
:100010000C9405010C9405010C9405010C94050148
:100020000C9405010C9405010C9465030C94D70302
:100030000C9405010C9405010C9405010C94050128
:100040000C9405010C9405010C9405010C94050118
:100050000C9405010C9405010C9405010C944307C4
:100060000C9405010C942D060C9407060C940501C4
:100070000C9405010C9405010C9405010C940501E8
:100080000C9405010C9405010C9405010C940501D8
:100090000C9405010C9405010C9405010C940501C8
:1000A0000C9405010C9405010C940501FB07FE0757
:1000B000ED07F107F5071F081F081F0802080608CB
:1000C0000A08100814081F081A08080B0002020288
:1000D00001000904000001020200000524001001D3
:1000E0000524010101042402060524060001070578
:1000F000810310004009040100020A000000070506
:1001000002024000000705830240000004030904C6
:1001100012011002EF02014041233680000101026A
:10012000030141726475696E6F204C4C430041724B
:100130006475696E6F204C656F6E6172646F00004C
:1001400000000200090F0000030401000C00000081
:10015000000000000000000000000000000000009F
:100160000000250028002B002E00310000000000B8
:10017000240027002A002D00300004040404040396
:100180000405020202020403020202020606060637
:10019000060604040202020404040802011040805E
:1001A000401020408040800802040180402010025E
:1001B0000110801020404020820811241FBECFEF84
:1001C000DAE0DEBFCDBF11E0A0E0B1E0EEE8F7E19C
:1001D00002C005900D92AE33B107D9F723E0AEE32C
:1001E000B1E001C01D92A23EB207E1F710E0CDEDF3
:1001F000D0E004C02197FE010E94B30BCC3DD10793
:10020000C9F70E94BF080C94C50B0C9400004091E4
:10021000450150914601209143013091440142171C
:100220005307B4F49091E8009570E1F39091E800E1
:1002300092FD19C08093F100809145019091460193
:1002400001968F739927892B19F48EEF8093E8001C
:1002500080914501909146010196909346018093CB
:10026000450181E0089580E00895CF92DF92EF92FA
:10027000FF920F931F93CF93DF931F92CDB7DEB7FB
:10028000182F062FE42E862F880F8E5F99830E94E9
:10029000070183E00E940701F12EC12E9981D92E1A
:1002A0008C2D8F19801798F4F601E7FE02C0849117
:1002B00001C080810E940701182F80E00E94070181
:1002C0008123FFEFCF1ADF0A8111EACF01C081E05D
:1002D0000F90DF91CF911F910F91FF90EF90DF90E2
:1002E000CF900895DF92EF92FF920F931F93CF93D9
:1002F000DF93D82E8A017B01E40EF51EEB01CE15AB
:10030000DF0571F0D7FE03C0FE01849101C0888132
:100310000E94070121968111F2CF8FEF9FEF01C05C
:10032000C801DF91CF911F910F91FF90EF90DF9067
:100330000895615030F02091F100FC012083019676
:10034000F8CF289884E680934F010895CF92DF92EA
:10035000EF92FF920F931F93CF93DF936C017A017B
:100360008B01C0E0D0E0CE15DF0589F0D8016D919A
:100370008D01D601ED91FC910190F081E02DC60137
:100380000995892B11F47E0102C02196ECCFC7019B
:10039000DF91CF911F910F91FF90EF90DF90CF9061
:1003A0000895FC01538D448D252F30E0842F90E07B
:1003B000821B930B541710F0CF9608950197089560
:1003C000FC01918D828D981761F0828DDF01A80F5D
:1003D000B11D5D968C91928D9F5F9F73928F90E07F
:1003E00008958FEF9FEF0895FC01918D828D9817EE
:1003F00031F0828DE80FF11D858D90E008958FEF2B
:100400009FEF0895FC01918D228D892F90E0805CF3
:100410009F4F821B91098F739927089581E591E081
:100420000E94020221E0892B09F420E0822F089526
:10043000FC01848DDF01A80FB11DA35ABF4F2C9181
:10044000848D90E001968F739927848FA689B78950
:100450002C93A089B1898C9180648C93938D848D29
:10046000981306C00288F389E02D80818F7D8083F8
:100470000895EF92FF920F931F93CF93DF93EC01B8
:1004800081E0888F9B8D8C8D981305C0E889F98950
:10049000808185FD24C0F62E0B8D10E00F5F1F4F6D
:1004A0000F731127E02E8C8DE8120CC00FB607FCDD
:1004B000FACFE889F989808185FFF5CFCE010E94C6
:1004C0001802F1CF8B8DFE01E80FF11DE35AFF4FAB
:1004D000F0820B8FEA89FB898081806207C0EE89F8
:1004E000FF896083E889F98980818064808381E065
:1004F00090E0DF91CF911F910F91FF90EF900895C1
:10050000CF93DF93EC01888D8823C9F0EA89FB89BA
:10051000808185FD05C0A889B9898C9186FD0FC0B1
:100520000FB607FCF5CF808185FFF2CFA889B98986
:100530008C9185FFEDCFCE010E941802E7CFDF91AD
:10054000CF91089580E090E0892B29F00E940E025F
:1005500081110C9400000895CF93DF931F92CDB7C3
:10056000DEB76983DC01ED91FC910280F381E02D1F
:1005700041E050E0BE016F5F7F4F09950F90DF9122
:10058000CF91089583E08093E9008091F200882361
:1005900019F08AE38093E8000895FC01848595852D
:1005A00097FD0BC09FB7F89482E08093E90080919B
:1005B000F2009FBF90E0019608959FB7F89482E003
:1005C0008093E9008091F2009FBF90E00895089524
:1005D00080E090E008950E94B90B0F931F93CF9392
:1005E000DF931F92CDB7DEB782E0898342E450E00B
:1005F0006AEC70E080E80E9472010E946E08DC01E3
:1006000012960D911C9113970115110569F0D801EF
:10061000ED91FC910280F381E02DBE016F5F7F4F71
:10062000C801099597FF07C089810F90DF91CF918D
:100630001F910F910895F80100851185E5CF0E9463
:100640005D0890E00895CF93DF931F92CDB7DEB79A
:10065000FC018485958597FD05C02FEF3FEF358719
:1006600024870BC0CE0101960E943308019719F42C
:10067000898190E002C08FEF9FEF0F90DF91CF91C3
:1006800008950F931F93CF93DF931F92CDB7DEB7DB
:100690008C01FC018485958597FF0EC0CE010196E3
:1006A0000E943308019719F4298130E002C02FEF2E
:1006B0003FEFF80135872487F801848595850F90F1
:1006C000DF91CF911F910F9108951F920F920FB656
:1006D0000F9211248F939F938091E1009091E100FC
:1006E000937F9093E10083FF0FC01092E90091E0A7
:1006F0009093EB001092EC0092E39093ED00109237
:10070000500198E09093F00082FF20C093E0909316
:10071000E9009091F200992319F09AE39093E80090
:1007200090914701992339F090914701915090930E
:100730004701992389F190914F01992339F09091C4
:100740004F01915090934F01992341F184FF10C0C4
:100750008091E2008E7E81608093E2008091E100D2
:100760008F7E8093E100809149018E7E806111C06F
:1007700080FF16C08091E2008E7E80618093E2004F
:100780008091E1008E7E8093E100809149018E7E10
:1007900081608093490104C05D9ACDCF289AD6CF5D
:1007A0009F918F910F900FBE0F901F9018951F92E1
:1007B0000F920FB60F921124CF92DF92EF92FF9219
:1007C0000F931F932F933F934F935F936F937F9359
:1007D0008F939F93AF93BF93EF93FF93CF93DF9349
:1007E000CDB7DEB76C97DEBFCDBF1092E900809128
:1007F000E80083FFEDC168E0CE0145960E949901B3
:1008000082EF8093E8008D8987FF05C09091E80012
:1008100090FFFCCF03C09EEF9093E800982F907656
:1008200009F0C6C09E892F89188D91110CC080389F
:1008300029F480914A018093F10002C01092F100E6
:100840001092F10048C1422F50E0512B913051F4E9
:10085000811141C14130510509F03DC180914A01EA
:100860008D7F0BC0933061F4811135C1413051054A
:1008700009F031C180914A01826080934A012BC105
:10088000953041F48091E80080FFFCCF20682093F0
:10089000E30021C1963009F05FC0EB8CFC8C109214
:1008A000E9001092460110924501123091F5109224
:1008B0004401109243010E94ED0299E0BE016F5F76
:1008C0007F4FDB01E92F1D92EA95E9F799831A839F
:1008D00091E09E8390EA98879AEF9987209145014D
:1008E00030914601275F3F4F3C832B838D831092CD
:1008F000E9001092460110924501F0924401E09205
:10090000430149E050E080E00E9472010E94ED0244
:10091000E2C0F0924401E09243010E946E08DC01C3
:100920001296ED90FC901397E114F10409F4C0C005
:10093000D701ED91FC910480F581E02DBE016B5E45
:100940007F4FC7010995009719F00CF0C4C0C7C0CC
:10095000F701E084F184E8CF973009F4C0C0983003
:1009600021F481E08093F100B6C0993009F0B3C062
:10097000837009F0B4C0E0E1F1E081E021E036E30A
:100980009081992361F08093E9002093EB0091918D
:100990009093EC003093ED008F5F873089F78EE7FE
:1009A0008093EA001092EA008F898093500193C0EF
:1009B0008B8D9C8D1092E90010924601109245019A
:1009C0009093440180934301898D811156C08E8993
:1009D0009D89913A59F4813209F081C047E050E095
:1009E00064E071E080E00E94720175C0913209F00C
:1009F00076C0833289F4888D90E0982F88272F89DC
:100A0000822BA0E0B0E08093000190930101A093BD
:100A10000201B09303015FC0803269F48091E80065
:100A200082FFFCCF67E084E091E00E9499018BEFA8
:100A30008093E80006C0823209F04DC08F89809310
:100A40000B0180914801882319F0EEEFFAE002C013
:100A5000E0E0F8E08091040190910501A091060189
:100A6000B0910701803B9440A105B10509F07BC01E
:100A700080910B0180FF93C076C00E946E08DC015C
:100A800012960D911C9113970115110541F1D80192
:100A9000ED91FC910190F081E02DBE016B5E7F4FE6
:100AA000C8010995811117C0F80100851185ECCFA7
:100AB000113009F44EC0133091F48F89882309F462
:100AC00045C0823081F440E860E18EE291E00E940E
:100AD0003501882321F08EEF8093E80079C081E210
:100AE0008093EB0075C0813029F440E86BE082E22E
:100AF00091E0EDCF833099F70E946E08DC011296E9
:100B0000ED90FC9013978E010F5F1F4F6801E11469
:100B1000F10479F0D701ED91FC910680F781E02D89
:100B2000B801C7010995080F111DF701E084F18490
:100B3000EECFD8011C92F60101900020E9F7319721
:100B4000BF016C197D0940E0C601C1CF6CE071E0C6
:100B500002C060E171E06115710509F2FB01449189
:100B600050E080E840CF0FB6F894A89580916000DF
:100B7000886180936000109260000FBEA895EE3FE0
:100B80002AE0F20739F08091FE0A9091FF0A9183E2
:100B90008083A1CF1092FF0A1092FE0A9CCFEE3FF5
:100BA0008AE0F80731F0808191819093FF0A809369
:100BB000FE0A87E797E7918380839BE088E10FB681
:100BC000F894A895809360000FBE9093600083CF47
:100BD0006C960FB6F894DEBF0FBECDBFDF91CF91FC
:100BE000FF91EF91BF91AF919F918F917F916F9105
:100BF0005F914F913F912F911F910F91FF90EF9037
:100C0000DF90CF900F900FBE0F901F9018951F92FE
:100C10000F920FB60F9211242F933F934F935F9330
:100C20006F937F938F939F93AF93BF93EF93FF93B4
:100C300081E591E00E941802FF91EF91BF91AF9181
:100C40009F918F917F916F915F914F913F912F91E4
:100C50000F900FBE0F901F9018951F920F920FB616
:100C60000F9211242F938F939F93EF93FF93E09113
:100C70006101F09162018081E0916701F09168016A
:100C800082FD12C0908180916A018F5F8F732091E5
:100C90006B01821751F0E0916A01F0E0EF5AFE4FCC
:100CA000958F80936A0101C08081FF91EF919F91A0
:100CB0008F912F910F900FBE0F901F9018953FB7F7
:100CC000F89480913F0190914001A0914101B09131
:100CD000420126B5A89B05C02F3F19F00196A11D22
:100CE000B11D3FBFBA2FA92F982F8827820F911DC2
:100CF000A11DB11DBC01CD0142E0660F771F881F09
:100D0000991F4A95D1F708958F929F92AF92BF9203
:100D1000CF92DF92EF92FF926B017C010E945F06FF
:100D20004B015C01C114D104E104F104F1F00E9413
:100D30005F06DC01CB0188199909AA09BB09883E25
:100D40009340A105B10570F321E0C21AD108E10872
:100D5000F10888EE880E83E0981EA11CB11CC11416
:100D6000D104E104F10419F7DDCFFF90EF90DF909B
:100D7000CF90BF90AF909F908F9008958F929F9249
:100D8000AF92BF92CF92DF92EF92FF920F931F9399
:100D9000CF93DF935C016B017A0180910B01882373
:100DA00009F45BC080915001882309F456C08091FA
:100DB000490180FF05C08091E00082608093E000DF
:100DC000E70110E00AEF83E0882E9AE3992E20973E
:100DD000D9F10E945D0881110AC0015009F43DC09B
:100DE00061E070E080E090E00E948406F0CF282F60
:100DF00030E0C217D3070CF48C2F4FB7F8948092D1
:100E0000E9009091E80095FF1DC0282F30E0C21B3B
:100E1000D30BF601982F915020F081918093F1002F
:100E2000FACFC20ED31E112319F09092E80009C028
:100E30008091E80085FD06C09092E80011E02097BF
:100E400009F010E04FBFC3CF1111C3CF5D9884E606
:100E5000809347011E141F0444F081E090E0F501E7
:100E60009383828380E090E001C0C701DF91CF913E
:100E70001F910F91FF90EF90DF90CF90BF90AF90B8
:100E80009F908F9008951F920F920FB60F9211248A
:100E90002F933F938F939F93AF93BF9380914B0179
:100EA00090914C01A0914D01B0914E0130913E01C5
:100EB00023E0230F2D3720F40196A11DB11D05C09D
:100EC00026E8230F0296A11DB11D20933E018093B9
:100ED0004B0190934C01A0934D01B0934E01809132
:100EE0003F0190914001A0914101B09142010196D2
:100EF000A11DB11D80933F0190934001A09341013A
:100F0000B0934201BF91AF919F918F913F912F91EB
:100F10000F900FBE0F901F90189590ED980F9A307C
:100F200060F09FEB980F963010F4875308959FE977
:100F3000980F963020F487550895892F08958FEFE4
:100F400008956115710579F0FB0101900020E9F722
:100F50003197AF01461B570BDC01ED91FC910280EC
:100F6000F381E02D099480E090E0089590E0FC0189
:100F7000E756FE4F2491FC01E658FE4F84918823EA
:100F800099F090E0880F991FFC01E459FE4FA5915C
:100F9000B491FC01E25AFE4F859194918FB7F89479
:100FA000EC91E22BEC938FBF0895E1E4F1E04491E2
:100FB000EBE9F1E02491ECE7F1E09491992309F455
:100FC00051C04423E1F150E0FA013197EF30F105CF
:100FD000B0F5EA5AFF4F0C94B30B309180003F7785
:100FE00007C0309180003F7D03C030918000377F83
:100FF0003093800024C034B53F7702C034B53F7DC4
:1010000034BD1DC0309190003F7707C030919000F3
:101010003F7D03C030919000377F309390000FC028
:101020003091C0003F7703C03091C0003F7D3093C6
:10103000C00005C03091C200377F3093C200E92F55
:10104000F0E0EE0FFF1FE25AFE4FA591B4919FB75B
:10105000F894EC91811103C020952E2301C02E2B12
:101060002C939FBF0895FC0180915001811103C012
:101070008FEF9FEF08959FB7F89482E08093E90087
:101080002091F20030E01216130614F421E030E053
:101090002115310559F0289884E680934F018091FD
:1010A000F10080838091F200882319F09FBFC9016D
:1010B00008958BE68093E800F9CF2FB7F89483E08A
:1010C0008093E9009091E800892F807295FF04C019
:1010D0009091F20080E4891B2FBF089580918A03CC
:1010E00081110DC082E08093860384E080938703A2
:1010F000109289031092880381E080938A0386E826
:1011000093E00895E1E5F1E01382128288EE93E026
:10111000A0E0B0E084839583A683B7832AE131E021
:10112000318320832DEC30E0358724872CEC30E0B0
:101130003787268728EC30E0318B208B29EC30E094
:10114000338B228B2AEC30E0358B248B2EEC30E075
:10115000378B268B118E128E138E148EE2E9F3E0FC
:101160001382128284839583A683B7838CE291E0F5
:10117000918380838FEF9FEF958784870895CF9326
:10118000DF93CDB7DEB7A1970FB6F894DEBF0FBEE1
:10119000CDBF789484B5826084BD84B5816084BD00
:1011A00085B5826085BD85B5816085BD80916E0005
:1011B000816080936E001092810080918100826036
:1011C0008093810080918100816080938100809173
:1011D0008000816080938000809191008260809384
:1011E00091008091910081608093910080919000A6
:1011F0008160809390008091C10084608093C100E1
:101200008091C10082608093C1008091C1008160A3
:101210008093C1008091C30081608093C30080915E
:10122000C00082608093C0008091C2008160809382
:10123000C20080917A00846080937A0080917A0065
:10124000826080937A0080917A00816080937A0036
:1012500080917A00806880937A00109250011092F9
:101260004A01109249018091D70081608093D70094
:1012700080EA8093D80089B5806189BD89B5826094
:1012800089BD09B400FEFDCF61E070E080E090E030
:101290000E9484068091D8008F7C80618093D80062
:1012A0008091E000807F8093E0008091E1008E7E5D
:1012B0008093E1008DE08093E200559A209AEEEF52
:1012C000FFE7859194918B3F9C4D19F481E08093C9
:1012D000480180E090E00E94890B80930D018FEF20
:1012E0009FEF90939F0380939E03E0916101F091A3
:1012F000620182E08083E0915D01F0915E011082E5
:10130000E0915F01F091600180E1808310926901BA
:10131000E0916501F091660186E08083E0916301D0
:10132000F0916401808180618083E0916301F0919C
:101330006401808188608083E0916301F0916401A1
:10134000808180688083E0916301F09164018081F5
:101350008F7D808364EF71E080E090E00E948406DE
:1013600082E00E94B60780E00E94D50783E00E94D9
:10137000B60784E00E94B60785E00E94B60786E0C3
:101380000E94B60788E4E1EFF2E0DF011D928A9542
:10139000E9F78AE08093370399E288E10FB6F89481
:1013A000A895809360000FBE909360008AE0482E5D
:1013B000512C612C712C9DE3A92E93E0B92E25E4CC
:1013C000322E30E3232E4FEE842E41E0942E0E94E5
:1013D0005F066B017C018FB7F89440914B015091EF
:1013E0004C0160914D0170914E018FBF80910B01B6
:1013F00080FF80910B018091600083FB882780F93A
:1014000090910E01981769F080930E0181112AC006
:101410004093820350938303609384037093850306
:1014200021C091111FC08091820390918303A091EC
:101430008403B09185038A019B01081B190B2A0BB9
:101440003B0BD901C801893E9340A105B10554F079
:1014500028E139E20FB6F894A895209360000FBEFA
:101460003093600080917E0390917F03A091800370
:10147000B09181038A019B01081B190B2A0B3B0BBE
:10148000D901C801813D9740A105B105B4F1409350
:101490007E0350937F0360938003709381036AE31C
:1014A00071E082E993E00E94A10720910D0130E0F4
:1014B00040E050E019A28E010F5D1F4FCA01B90133
:1014C000A30192010E94910B605DD8016E938D0182
:1014D000211531054105510589F7BD0182E993E0E8
:1014E0000E94A107E0919203F09193030190F08193
:1014F000E02D6AE082E993E0099580917D038823DD
:10150000E9F180913E030E948D07182F80913F03DF
:101510000E948D07A82FF50101900020E9F731976F
:10152000ED53F34080913D03853411F5ED3001F525
:10153000B701A601405D5740610971094093390325
:1015400050933A0360933B0370933C03A150B0E186
:101550001B9FA00D1124EAE0AE9FD0011124AF50D3
:10156000BD4F8AE0E0E4F3E001900D928A95E1F747
:101570001092F00210923D0310927D038091390386
:1015800090913A03C81AD90AF0EBCF16F4E0DF06BF
:101590000CF46AC080910C018F5F80930C0188303D
:1015A000E8F1883051F58091EF028823B9F18091FC
:1015B000EE01EFEEF1E02AE09E2F9819981730F433
:1015C00090819D3009F420833196F6CF81E00E940E
:1015D000D5076FEE71E081E591E00E94A10781E5FA
:1015E00091E00E94800280E00E94D5071092EE01F7
:1015F0001092EF011092EF0211C081E080930C0174
:1016000061EF72E082E993E00E94A10746E450E0B6
:1016100060E270E081EF92E00E94BE0B80910C01CD
:10162000883010F539822A82805D8B838AE08C8332
:101630001D8281E00E94D507BE016F5F7F4F81E56B
:1016400091E00E94A10781E591E00E94800280E084
:101650000E94D5070E945F066093390370933A0396
:1016600080933B0390933C0311E082E993E00E9456
:10167000CD02892BD9F082E993E00E942303E09107
:10168000EE018A3041F41093EF02A895F0E0E151A9
:10169000FE4F1082EACFEE3F40F7AE2FB0E0A151EF
:1016A000BE4F8C93EF5FE093EE01DFCF00E011E0DF
:1016B00081E591E00E940202892BE1F081E591E051
:1016C0000E94E0019091F0028A3041F410937D0372
:1016D000E92FF0E0E35CFC4F108207C09E3340F43A
:1016E000E92FF0E0E35CFC4F80839F5F9093F00272
:1016F00001E0DECF002351F00E945F0660933903C2
:1017000070933A0380933B0390933C030E94A202A0
:101710005ECEF999FECF92BD81BDF89A992780B52A
:101720000895A1E21A2EAA1BBB1BFD010DC0AA1F22
:10173000BB1FEE1FFF1FA217B307E407F50720F03A
:10174000A21BB30BE40BF50B661F771F881F991FB5
:101750001A9469F760957095809590959B01AC01FE
:10176000BD01CF010895EE0FFF1F0590F491E02D0C
:10177000099481E090E0F8940C94C50BDC0101C061
:0E1780006D9341505040E0F70895F894FFCF6C
:10178E00FFFFFFFF00E100000000000008FF010066
:10179E00C18081000000000000003902A601D101C5
:1017AE0080020202E001F40100000000AC02BE065D
:0E17BE001F03C202CD022303410349443A0037
:00000001FF
