:100000000C9486000C94AE000C94AE000C94AE00E0
:100010000C94AE000C94AE000C94AE000C94AE00A8
:100020000C94AE000C94AE000C94AE000C94AE0098
:100030000C94AE000C94AE000C94AE000C94AE0088
:100040000C9486030C94AE000C94A7020C948102CD
:100050000C94AE000C94AE000C94AE000C94AE0068
:100060000C94AE000C94AE000000000800020100E9
:100070000003040700000000000000000000000072
:10008000240027002A00470052616E6765203D204A
:10009000004C495333444820666F756E6421004319
:1000A0006F756C646E742073746172740052533493
:1000B000383520416464726573733A20000A436FD7
:1000C0006D70696C6564206F6E3A20004649464F3A
:1000D0002045525200010204081020408001020411
:1000E000081020010204081020000000002500284C
:1000F000002B0004040404040404040202020202AB
:100100000203030303030300EB0AE30A11241FBEE7
:10011000CFEFD8E0DEBFCDBF11E0A0E0B1E0EEEA66
:10012000F7E102C005900D92A633B107D9F722E09E
:10013000A6E3B1E001C01D92AA3DB207E1F710E0CD
:10014000C5E8D0E004C02197FE010E94B80BC43876
:10015000D107C9F70E9499050C94CA0B0C940000B2
:10016000CF92DF92EF92FF920F931F93CF93DF9383
:100170006C017A018B01C0E0D0E0CE15DF0589F07B
:10018000D8016D918D01D601ED91FC910190F08126
:10019000E02DC6010995892B11F47E0102C021963C
:1001A000ECCFC701DF91CF911F910F91FF90EF909E
:1001B000DF90CF900895089580E090E00895FC01CD
:1001C000538D448D252F30E0842F90E0821B930BBC
:1001D000541710F0CF96089501970895FC01918D62
:1001E000828D981761F0828DDF01A80FB11D5D9699
:1001F0008C91928D9F5F9F73928F90E008958FEF07
:100200009FEF0895FC01918D828D981731F0828DBA
:10021000E80FF11D858D90E008958FEF9FEF089511
:10022000FC01918D228D892F90E0805C9F4F821B75
:1002300091098F739927089584EF91E00E9410012E
:1002400021E0892B09F420E0822F0895FC01848DA0
:10025000DF01A80FB11DA35ABF4F2C91848D90E0F0
:1002600001968F739927848FA689B7892C93A089CB
:10027000B1898C9180648C93938D848D981306C082
:100280000288F389E02D80818F7D80830895EF922D
:10029000FF920F931F93CF93DF93EC0181E0888F40
:1002A0009B8D8C8D981305C0E889F989808185FD27
:1002B00024C0F62E0B8D10E00F5F1F4F0F73112718
:1002C000E02E8C8DE8120CC00FB607FCFACFE8893F
:1002D000F989808185FFF5CFCE010E942601F1CFFB
:1002E0008B8DFE01E80FF11DE35AFF4FF0820B8F5B
:1002F000EA89FB898081806207C0EE89FF8960837B
:10030000E889F98980818064808381E090E0DF91D1
:10031000CF911F910F91FF90EF900895CF93DF93AE
:10032000EC01888D8823C9F0EA89FB89808185FDED
:1003300005C0A889B9898C9186FD0FC00FB607FC4E
:10034000F5CF808185FFF2CFA889B9898C9185FF8F
:10035000EDCFCE010E942601E7CFDF91CF91089526
:1003600080E090E0892B29F00E941C0181110C94FF
:10037000000008952FB7F89460913701709138010B
:100380008091390190913A012FBF089590ED980F17
:100390009A3060F09FEB980F963010F487530895D1
:1003A0009FE9980F963020F487550895892F089576
:1003B0008FEF08951F93CF93DF93EC0188810E9404
:1003C000C601182F89810E94C60190E1199F800DF6
:1003D0001124DF91CF911F9108950F931F93CF9315
:1003E0008C010E94DA01C82FC80102960E94DA012E
:1003F0002C2F30E0322F2227A901480F511DCA01AE
:10040000CF911F910F910895FB01292F3327A90147
:1004100034E0559547953A95E1F74A30510510F487
:10042000405D01C0495C40832F702A3010F4205D8C
:1004300001C0295C21839C01332794E035952795E1
:100440009A95E1F72A30310514F4205D01C0295C4A
:100450002283982F9F709F012C5F3F4F9A3010F49A
:10046000905D01C0995C93831482C9010895282F7F
:1004700030E094E0359527959A95E1F72A303105DB
:1004800014F4205D01C0295CFB012083982F9F702C
:100490009B012E5F3F4F9A3010F4905D01C0995C34
:1004A000FB019183C9010895CF93C82F892F0E9422
:1004B0003702BC018C2FCF910C943702FF920F931F
:1004C0001F93CF93DF93182F062FF42E80934D01A7
:1004D00060934C0140934B01C0E0D0E02F2D402FA2
:1004E000612FCE010E946E042196CC30D105B1F768
:1004F000DF91CF911F910F91FF900C94A0040E9467
:10050000BE0B1F920F920FB60F9211242F933F93A1
:100510004F935F936F937F938F939F93AF93BF930B
:10052000EF93FF9384EF91E00E942601FF91EF91FA
:10053000BF91AF919F918F917F916F915F914F91FB
:100540003F912F910F900FBE0F901F9018951F9203
:100550000F920FB60F9211242F938F939F93EF93C7
:10056000FF93E0910402F09105028081E0910A027C
:10057000F0910B0282FD12C0908180910D028F5F7D
:100580008F7320910E02821751F0E0910D02F0E07E
:10059000EC50FE4F958F80930D0201C08081FF913A
:1005A000EF919F918F912F910F900FBE0F901F9001
:1005B000189590E0FC01E859FF4F3491FC01EB5293
:1005C000FF4F2491FC01ED50FF4FE491EE2309F41D
:1005D0003BC0332339F1333091F038F43130A9F096
:1005E000323001F584B58F7D12C0373091F038304C
:1005F000A1F03430B9F4809180008F7D03C08091E8
:1006000080008F77809380000DC084B58F7784BD84
:1006100009C08091B0008F7703C08091B0008F7DBA
:100620008093B000F0E0EE0FFF1FE751FF4FA59160
:10063000B4918FB7F894EC91611103C020952E23EB
:1006400001C02E2B2C938FBF0895CF93DF9390E0A2
:10065000FC01EB52FF4F2491FC01ED50FF4F8491C0
:10066000882361F190E0880F991FFC01E458FF4F47
:10067000C591D491FC01E751FF4FA591B49161114F
:1006800009C09FB7F8948881209582238883EC91D4
:100690002E230BC0623061F49FB7F8943881822F0B
:1006A000809583238883EC912E2B2C939FBF06C0CB
:1006B0008FB7F894E8812E2B28838FBFDF91CF91DD
:1006C00008953FB7F89480913B0190913C01A0912F
:1006D0003D01B0913E0126B5A89B05C02F3F19F002
:1006E0000196A11DB11D3FBFBA2FA92F982F8827B2
:1006F000820F911DA11DB11DBC01CD0142E0660F0D
:10070000771F881F991F4A95D1F708951F920F925E
:100710000FB60F9211242F933F938F939F93AF9314
:10072000BF938091370190913801A0913901B09128
:100730003A013091360123E0230F2D3720F4019642
:10074000A11DB11D05C026E8230F0296A11DB11DF4
:10075000209336018093370190933801A09339019B
:10076000B0933A0180913B0190913C01A0913D01F1
:10077000B0913E010196A11DB11D80933B01909364
:100780003C01A0933D01B0933E01BF91AF919F9179
:100790008F913F912F910F900FBE0F901F90189542
:1007A00008958EBD00000DB407FEFDCF8EB50895EF
:1007B0008CBD9DBD0895CF93DF9382E591E00E94AB
:1007C000D803C1E9D2E060E08E810E94D90288EEB0
:1007D0000E94D1038FEF0E94D10390E09983888318
:1007E0008FEF0E94D10328813981382B39832883E8
:1007F0008FEF0E94D10390E09B838A838FEF0E944A
:10080000D1032A813B81382B3B832A838FEF0E94BF
:10081000D10390E09D838C838FEF0E94D1032C81C4
:100820003D81382B3D832C8361E08E810E94D9026B
:10083000DF91CF910C94D0030F931F93CF93DF934D
:10084000082F162F82E591E00E94D803C1E9D2E07B
:1008500060E08E810E94D902802F8F770E94D103A1
:10086000812F0E94D10361E08E810E94D902DF9125
:10087000CF911F910F910C94D0031F93CF93DF93CF
:10088000182F82E591E00E94D803C1E9D2E060E030
:100890008E810E94D902812F80680E94D10380E05E
:1008A0000E94D103182F61E08E810E94D9020E941C
:1008B000D003812FDF91CF911F910895CF938EE2C6
:1008C0000E943D04C82FCF736C2F8EE20E941C043F
:1008D0006C2F60648EE2CF910C941C04E0919A021C
:1008E000F0919B028E179F0750F53091D2025091E4
:1008F000CF02351308C0FC01EE0FFF1F8E0F9F1FA4
:1009000081569D4F0AC0880F991F880F991F8156E5
:100910009D4FFC01E30FF11D10823091CF02FC01CD
:10092000E30FF11D60833091D002FC01E30FF11D54
:1009300040833091D102FC01E30FF11D2083089523
:100940000F931F93CF93DF93CDB7DEB727970FB6E3
:10095000F894DEBF0FBECDBF0E9461030091D302A9
:100960001091D4022091D5023091D602DC01CB0146
:10097000801B910BA20BB30BC297A105B10560F3CD
:10098000F89480919C0290919D029A838983809132
:100990009F028F83E091D702F091D80290818091DD
:1009A000D902982B9E839081809589238D838D8198
:1009B0008C8388E08B835E816D814F813B812C81AC
:1009C00089819A81A0EAB2E0508347FD252F3A95AC
:1009D0002083262F39F0441F00C0000060830000F0
:1009E00000C0F2CF38E04D9160830000019761F7BD
:1009F000F093D802E093D7024F833B832C839A83F2
:100A0000898378940E9461036093D3027093D40227
:100A10008093D5029093D60227960FB6F894DEBF46
:100A20000FBECDBFDF91CF911F910F910895009719
:100A300069F0FC0101900020E9F73197AF01481BF4
:100A4000590BBC0184EF91E00C94B00080E090E081
:100A500008950F931F93CF93DF938C01C0E0D0E0F4
:100A6000F801EC0FFD1F6491662371F0E091F40131
:100A7000F091F5010190F081E02D84EF91E009956E
:100A8000892B11F02196ECCFCE01DF91CF911F91F0
:100A90000F910895CF93DF930E942905EC018DE11A
:100AA00091E00E9417058C0F9D1FDF91CF91089553
:100AB0008F929F92AF92BF920F931F93CF93DF932A
:100AC000CDB7DEB7A1970FB6F894DEBF0FBECDBF8E
:100AD00019A2423008F44AE08E010F5D1F4F842EA8
:100AE000912CA12CB12CA50194010E94770BE62F2B
:100AF000B901CA0101501109EA3014F4E05D01C0E6
:100B0000E95CD801EC93232B242B252B61F7C8013A
:100B10000E941705A1960FB6F894DEBF0FBECDBF99
:100B2000DF91CF911F910F91BF90AF909F908F90C9
:100B30000895CF93DF93CDB7DEB76A970FB6F894D9
:100B4000DEBF0FBECDBF789484B5826084BD84B50E
:100B5000816084BD85B5826085BD85B5816085BDB8
:100B600080916E00816080936E0010928100809170
:100B700081008260809381008091810081608093F8
:100B80008100809180008160809380008091B1001D
:100B900084608093B1008091B00081608093B00048
:100BA00080917A00846080937A0080917A008260DC
:100BB00080937A0080917A00816080937A0080919E
:100BC0007A00806880937A001092C10061E084E02E
:100BD0000E94250360E084E00E94D902E0910402B3
:100BE000F091050282E08083E0910002F091010221
:100BF0001082E0910202F091030280E18083109262
:100C00000C02E0910802F091090286E08083E091F5
:100C10000602F0910702808180618083E0910602E4
:100C2000F0910702808188608083E0910602F09154
:100C30000702808180688083E0910602F0910702BC
:100C400080818F7D808380E090E00E94450B8093BF
:100C5000E20185E1E0E2F1E0DE01119601900D9202
:100C60008A95E1F78DEB90E00E942905CE0101966F
:100C70000E9417058DE191E00E9417058DEA90E032
:100C80000E9429056091E20170E080E090E04AE076
:100C90000E9458058DE191E00E94170580919E0207
:100CA00087FD08C061E00E94250360E080919E02FC
:100CB0000E94D90281E08093990261E080919702BD
:100CC0000E94D90261E0809197020E9425031FB71C
:100CD000F89480913F01811127C0EDEFF0E08491FD
:100CE000EFEDF0E09491E82FF0E0EE0FFF1FE458F5
:100CF000FF4FA591B491EC91E92321F461E08AE0E2
:100D00000E94D90261E08AE00E9425038CB58061CF
:100D10008CBD8CB580648CBD61E08DE00E942503A4
:100D200061E08BE00E94250380913F018F5F8093FB
:100D30003F011FBF8FE00E943D04833309F03EC492
:100D400067E080E20E941C0480E20E943D048F70F4
:100D5000682F606580E20E941C0468E883E20E94BC
:100D60001C0460E08FE10E941C0481E990E00E9475
:100D70004A0583E20E943D048F7C682F606183E214
:100D80000E941C0488E890E00E94290583E20E94EA
:100D90003D0490E0B4E095958795BA95E1F78370AE
:100DA000992762E070E002C0660F771F8A95E2F72C
:100DB000072E000C880B990B4AE00E94580586E824
:100DC00090E00E944A058EE20E943D048072682FE6
:100DD00064658EE20E941C0484E20E943D04682F38
:100DE000606484E20E941C048FE20E943D0485FD41
:100DF00003C00E94DB03F8CF0E945E0461E087E03D
:100E00000E94250361E088E00E9425033324339487
:100E10000E94BA012B013C018091F30181117FC036
:100E20008091EF019091F001A091F101B091F20158
:100E3000A3019201281B390B4A0B5B0B2A303105A9
:100E40004105510508F46BC040919C0250919D02F0
:100E500060E070E08FE992E00E94C30B0091ED0129
:100E60001091EE01003411058CF4D02EE12CF12C00
:100E70002D2D4D2D6D2DC7010E946E0432E0E30E25
:100E8000F11C4CE0E416F10499F739C00038110563
:100E9000ECF48FE7D82ED01AA0ECCA2EC00EE12CAD
:100EA000F12C2D2D4D2D6D2DC7010E946E042C2D82
:100EB0004C2D6C2DC70101960E946E0452E0E50E88
:100EC000F11C8CE0E816F10461F719C0003C110533
:100ED000A4F48FEBD82ED01AEE24E394F12C2D2D10
:100EE0004D2D6D2DC7010E946E0492E0E90EF11C9C
:100EF000ADE0EA16F10499F702C03092F3010E94C6
:100F0000A0040F5F1F4F1093EE010093ED0140927C
:100F1000EF015092F0016092F1017092F201809124
:100F2000E9019091EA01A091EB01B091EC01A301DC
:100F30009201281B390B4A0B5B0B2431310541050B
:100F4000510508F44FC18FE20E943D04182F107420
:100F50008F7109F42FC10E94DB038091910290915F
:100F600092022091E7013091E801821B930B90934C
:100F700092028093910220919302309194024091C9
:100F8000E5015091E601241B350B30939402209328
:100F900093026091050170910601409148015091C2
:100FA0004901461B570B481759072CF0509349012C
:100FB0004093480104C090934901809348014091B7
:100FC000460150914701460F571F841795072CF093
:100FD000509347014093460104C09093470180938A
:100FE00046014091440150914501461B570B421761
:100FF00053072CF0509345014093440104C03093B3
:101000004501209344014091420150914301460F14
:10101000571F241735072CF050934301409342018A
:1010200004C0309343012093420140914801509104
:101030004901E0914601F0914701609144017091AE
:101040004501A0914201B09143016A1B7B0B4E1BED
:101050005F0B461757070CF4AB016091000162303B
:1010600018F0623061F01DC06091030170910401BD
:1010700064177507B4F442E04093000112C0609118
:1010800003017091040177FF02C0695F7F4FE3E0C5
:1010900075956795EA95E1F74617570714F410928E
:1010A000000197FF03C091958195910937FF03C017
:1010B000319521953109821793070CF4C9012091CC
:1010C0000101309102012817390744F48091410150
:1010D0008F5F809341011092400110C037FF02C022
:1010E0002F5F3F4F35952795821793073CF48091EA
:1010F00040018F5F80934001109241019091000167
:1011000080914001923099F0803130F0109240018E
:10111000109241011092000180914101803198F0BC
:101120001092400110924101309200010CC08131B7
:1011300018F050E15093400180914101813118F045
:1011400080E180934101809100018093E4018091CE
:10115000E301882359F193E59983BE016E5F7F4FC8
:101160008091E2010E943702BC018091910290912E
:1011700092020E945402BC018091930290919402C9
:101180000E945402BC0180919502909196020E94A7
:101190000402EAE0DC01EC9311961C9261E084E029
:1011A0000E94D902CE0101960E9417058FE20E948B
:1011B0003D04CECE84EF91E00E948E0160E084E099
:1011C0000E94D902112331F08CEC90E00E944A0574
:1011D0000E945E044092E9015092EA016092EB01A4
:1011E0007092EC018091E101882309F482C0809122
:1011F000F301882309F47DC00E94BA012091DD012A
:101200003091DE01621B730B2091D9013091DA011C
:101210004091DB015091DC012E8B3F8B488F598F21
:101220006B01E12CF12C6091D8011091D701209035
:10123000D601C216D306E406F50628F01092E101A5
:10124000062F422D52C00091D501802E912CA12C49
:10125000B12C862F90E0A0E0B0E0BC01CD01681970
:1012600079098A099B09A70196010E94A80B2E897A
:101270003F89488D598D0E944D0B022F080D80909B
:10128000D401912CA12CB12C812F90E0A0E0B0E0F2
:10129000BC01CD01681979098A099B09A70196014A
:1012A0000E94A80B2E893F89488D598D0E944D0BB5
:1012B000122F180D8090D301912CA12CB12C822DCE
:1012C00090E0A0E0B0E0BC01CD01681979098A097D
:1012D0009B09A70196010E94A80B2E893F89488D82
:1012E000598D0E944D0B422F480D612F802F0E9477
:1012F0005E028091E3018823F9F08091CF01909103
:10130000D001A091D101B091D201A3019201281B7B
:10131000390B4A0B5B0BDA01C9014091070150916F
:1013200008016091090170910A0184179507A607C9
:10133000B70714F01092E3018091CE01882309F4DD
:1013400029C18FE491E00E94DA01EEE4F1E001901E
:101350000020E9F73197EE54F14090914E0193351A
:1013600039F5E53009F0FBC09091E2018913F7C02F
:101370000E94BA016093CF017093D0018093D10194
:101380009093D20181E591E00E94DA01889F90015B
:101390001124A4E6B0E00E94990B609307017093BA
:1013A00008018093090190930A013092E301D7C0AC
:1013B0009C3409F5E93009F0D2C09091E20189131B
:1013C000CEC081E591E00E94DA01182F83E591E01B
:1013D0000E94DA01682F85E591E06A8F0E94DA01A8
:1013E0009091F3016A8D992309F4B9C0482F812F98
:1013F0000E945E02B4C0963409F040C0ED3009F09E
:10140000AEC09091E2018913AAC081E591E00E94EB
:10141000DA018093D80183E591E00E94DA0180939C
:10142000D70185E591E00E94DA018093D601809191
:101430004D018093D50180914C018093D40180911E
:101440004B018093D30187E591E00E94ED01A0E07C
:10145000B0E08093D9019093DA01A093DB01B093BF
:10146000DC010E94BA016093DD017093DE0180937C
:10147000DF019093E0013092E10171C09534B1F544
:10148000E33009F06CC02091E201821368C09983B7
:10149000BE016E5F7F4F0E943702BC018091E40164
:1014A0000E943702BC0180919102909192020E94A9
:1014B0005402BC0180919302909194020E94040214
:1014C000EAE0DC01EC9311961C9261E084E00E945A
:1014D000D902CE0101960E94170584EF91E00E9487
:1014E0008E0160E084E00E94D90239C09035F9F4A1
:1014F000EF30A9F59091E201891331C081E591E0C7
:101500000E94ED01909306018093050185E591E02D
:101510000E94ED01909304018093030189E591E01D
:101520000E94ED01909302018093010118C09F3445
:10153000B1F4EB30A1F49091E201891310C081E580
:1015400091E00E94ED019093E8018093E70185E529
:1015500091E00E94ED019093E6018093E5011092E5
:101560004A0110924E011092CE0114C084EF91E016
:101570000E94EE0090914A018A3099F08D3089F0F6
:101580009F3340F4E92FF0E0E25BFE4F80839F5FE2
:1015900090934A0184EF91E00E941001892B31F76A
:1015A0000AC03092CE01E92FF0E0E25BFE4F1082DC
:1015B0009F5F90934A010E94B0012ACC8FE990E08E
:1015C0000E944A05FFCF80919E0287FD03C060E024
:1015D0000C9425030895E4EFF1E01382128288EE63
:1015E00093E0A0E0B0E084839583A683B7838FE087
:1015F00091E09183808385EC90E09587848784ECEB
:1016000090E09787868780EC90E0918B808B81ECCF
:1016100090E0938B828B82EC90E0958B848B86ECB0
:1016200090E0978B868B118E128E138E148EE8E9C4
:10163000F2E0118213AE14AE15AE16AE8CE090E05F
:101640009383828381E082AF87AB10AE82E081AF6B
:1016500084E290E09583848381E18683E4E0F1E095
:10166000E491F0E0EE0FFF1FE751FF4F8591949159
:101670009093D8028093D702E6EEF0E0E491E093F5
:10168000D9028AE0809397020895F999FECF92BD1E
:1016900081BDF89A992780B50895052E97FB1EF411
:1016A00000940E94640B57FD07D00E94770B07FC43
:1016B00003D04EF40C94640B5095409530952195D1
:1016C0003F4F4F4F5F4F089590958095709561956E
:1016D0007F4F8F4F9F4F08950E94990BA59F900DAC
:1016E000B49F900DA49F800D911D11240895A1E237
:1016F0001A2EAA1BBB1BFD010DC0AA1FBB1FEE1F8C
:10170000FF1FA217B307E407F50720F0A21BB30BD6
:10171000E40BF50B661F771F881F991F1A9469F752
:1017200060957095809590959B01AC01BD01CF01AE
:101730000895A29FB001B39FC001A39F700D811DAA
:101740001124911DB29F700D811D1124911D0895CA
:10175000DB018F939F930E946C0BBF91AF91A29F6F
:10176000800D911DA39F900DB29F900D112408959F
:10177000EE0FFF1F0590F491E02D099481E090E0B9
:10178000F8940C94CA0BDC0101C06D934150504099
:10179000E0F7089510E0C5E8D0E004C0FE010E9423
:0E17A000B80B2196C638D107C9F7F894FFCFD1
:1017AE000280010003200010270000000000004707
:1017BE0001B000DF008E011001EE0002010D0A00E3
:1017CE0041756720333120323031382032333A338D
:0617DE00373A313400002F
:00000001FF
