:107C00000C94343E0C941D3F0C941D3F0C941D3F6E
:107C10000C941D3F0C941D3F0C941D3F0C941D3F74
:107C20000C941D3F0C941D3F0C941D3F0C941D3F64
:107C30000C941D3F0C941D3F0C941D3F0C941D3F54
:107C40000C941D3F0C941D3F0C941D3F0C941D3F44
:107C50000C941D3F0C941D3F0C941D3F0C941D3F34
:107C60000C941D3F0C941D3F11241FBECFEFD8E094
:107C7000DEBFCDBF0E943E3E0C946B3F0F92CDB74E
:107C8000DEB7112484B714BE982F9D7011F00E94A6
:107C90004E3F82E08093C00088E18093C10086E07F
:107CA0008093C20080E18093C4008EE00E94323F46
:107CB0002224332443E0942E7724739435E0632EFA
:107CC00021E1522E0E94263F813491F40E94263FEA
:107CD00089830E94383F8981823811F482E005C08F
:107CE000813811F486E001C083E00E941F3FA1C0EB
:107CF000823411F484E103C0853421F485E00E94CC
:107D0000443F97C0853569F40E94263F282E3324CE
:107D10000E94263FB82EAA242A283B28220C331C76
:107D200086C0863529F484E00E94443F80E0DDCFA0
:107D3000843609F048C00E94263F0E94263F882EC4
:107D40000E94263FE82E00E011E00E94263FF80145
:107D500081938F018E16C9F70E94383FFE2DF534AE
:107D600081F48101E12C81E0F82E08C0C8010F5F89
:107D70001F4FF70161917F010E945D3F8E14B1F7A3
:107D800058C0F10197BEE89507B600FCFDCFF101A0
:107D9000A0E0B1E08C9190E01196DC901197CC249A
:107DA0008C299D2912960C0177BEE89511243296F4
:107DB0008A1681F7F10167BEE89507B600FCFDCF92
:107DC00057BEE89536C0843709F50E94263F0E94C9
:107DD000263FE82E0E94263F89830E94383F8981F2
:107DE000853459F48101C8010F5F1F4F0E94553F30
:107DF0000E941F3FEA94B9F71CC08101F8018591E8
:107E00008F010E941F3FEA94C9F713C0853751F4D0
:107E10000E94383F8EE10E941F3F85E90E941F3F6C
:107E20008FE063CF813519F488E00E94323F0E94D1
:107E3000383F80E10E941F3F45CF0C94003E909157
:107E4000C00095FFFCCF8093C60008958091C000CC
:107E500087FFFCCF8091C00084FD01C0A895809170
:107E6000C6000895E0E6F0E098E1908380830895ED
:107E70000E94263F803221F088E00E94323FFFCFEF
:107E800084E10E941F3F08951F93182F0E94263FF0
:107E90001150E1F70E94383F1F910895282E80E08D
:107EA0000E94323FEE27FF270994F999FECF92BD39
:107EB00081BDF89A992780B50895262FF999FECFAC
:107EC0001FBA92BD81BD20BD0FB6F894FA9AF99AF7
:0A7ED0000FBE01960895F894FFCF4D
:027FFE00020679
:0400000300007C007D
:00000001FF
