:100000000C945E000C947B000C947B000C947B00A1
:100010000C947B000C947B000C947B000C947B0074
:100020000C947B000C947B000C947B000C947B0064
:100030000C947B000C947B000C947B000C947B0054
:100040000C9425010C947B000C947B000C947B0099
:100050000C947B000C947B000C947B000C947B0034
:100060000C947B000C947B0000000000240027000F
:100070002A0000000000250028002B0004040404CE
:100080000404040402020202020203030303030342
:10009000010204081020408001020408102001021F
:1000A00004081020000000080002010000030407FB
:1000B00000000000000000008C02B70211241FBEE7
:1000C000CFEFD8E0DEBFCDBF21E0A0E0B1E001C0BE
:1000D0001D92AB34B207E1F710E0CDE5D0E004C0EB
:1000E0002197FE010E94BF02CC35D107C9F70E94BB
:1000F0006F010C94CC020C94000090E0FC01EC55D4
:10010000FF4F2491FC01E057FF4F3491FC01E4586C
:10011000FF4FE491EE23B9F1222339F1233091F01E
:1001200038F42130A9F0223001F584B58F7D12C05A
:10013000273091F02830A1F02430B9F4809180006C
:100140008F7D03C0809180008F77809380000DC0E9
:1001500084B58F7784BD09C08091B0008F7703C0CC
:100160008091B0008F7D8093B000F0E0EE0FFF1F14
:10017000EE58FF4FA591B4918FB7F894EC9130955C
:100180003E233C938FBF0895CF93DF9390E0FC0113
:10019000E057FF4F2491FC01E458FF4F84918823DE
:1001A00061F190E0880F991FFC01E859FF4FC5915C
:1001B000D491FC01EE58FF4FA591B491611109C093
:1001C0009FB7F8948881209582238883EC912E2311
:1001D0000BC0623061F49FB7F8943881822F80950C
:1001E00083238883EC912E2B2C939FBF06C08FB75F
:1001F000F894E8812E2B28838FBFDF91CF9108954B
:100200003FB7F8948091050190910601A0910701F4
:10021000B091080126B5A89B05C02F3F19F00196A3
:10022000A11DB11D3FBFBA2FA92F982F8827820F7C
:10023000911DA11DB11DBC01CD0142E0660F771FCC
:10024000881F991F4A95D1F708951F920F920FB6F4
:100250000F9211242F933F938F939F93AF93BF934C
:100260008091010190910201A0910301B0910401DC
:100270003091000123E0230F2D3720F40196A11DBA
:10028000B11D05C026E8230F0296A11DB11D2093C4
:1002900000018093010190930201A0930301B093A8
:1002A00004018091050190910601A0910701B09190
:1002B00008010196A11DB11D8093050190930601CF
:1002C000A0930701B0930801BF91AF919F918F91C7
:1002D0003F912F910F900FBE0F901F901895CF93C5
:1002E000DF93CDB7DEB727970FB6F894DEBF0FBE0A
:1002F000CDBF789484B5826084BD84B5816084BDAF
:1003000085B5826085BD85B5816085BD80916E00B3
:10031000816080936E0010928100809181008260E4
:100320008093810080918100816080938100809121
:1003300080008160809380008091B1008460809310
:10034000B1008091B00081608093B00080917A000C
:10035000846080937A0080917A00826080937A0032
:1003600080917A00816080937A0080917A00806821
:1003700080937A001092C10080910F0187FD07C021
:1003800061E00E94C40080910F010E947D0081E025
:1003900080930A0188E0D82E01E111E090E0E92E77
:1003A00090E0F92E28E0C22E40910D0150910E01EF
:1003B00060E070E080E191E00E94C50260E171E0E0
:1003C000AB0120E030E080910B0190910C012817E7
:1003D000390718F5E091430180914001E81302C00C
:1003E000CB0106C0CA01DA01AE0FB11DFD011082BA
:1003F000E0914001DC01AE0FB11DFD01D082E09122
:100400004101DC01AE0FB11DFD01D082E09142013E
:10041000DC01AE0FB11DFD01D0822F5F3F4F6D5F3C
:100420007F4F4C5F5F4F2C30310569F60E94000111
:100430008090440190904501A0904601B090470102
:10044000DC01CB0188199909AA09BB09C297A1054A
:10045000B10560F3F89480910D0190910E019A839B
:100460008983809110018F83E0914801F0914901C7
:10047000908180914A01982B9E8390818095892359
:100480008D838D818C83CB825E816D814F813B8199
:100490002C8189819A81D801508347FD252F3A9577
:1004A0002083262F39F0441F00C000006083000025
:1004B00000C0F2CF38E04D9160830000019761F7F2
:1004C000F0934901E09348014F833B832C839A8347
:1004D000898378940E9400016093440170934501E0
:1004E00080934601909347010E9400014B015C01FB
:1004F0000E940001DC01CB0188199909AA09BB09F6
:10050000883E9340A105B10598F3E114F10409F484
:100510004BCF0E94000048CFE9E0F1E0118213AE1A
:1005200014AE15AE16AE8CE090E09383828381E02A
:1005300082AF87AB10AE82E081AF84E290E095831A
:10054000848381E18683EDE8F0E0E491F0E0EE0F52
:10055000FF1FEE58FF4F859194919093490180932E
:100560004801E1EAF0E0E491E0934A0108958091C6
:100570000F0187FD03C060E00C94C4000895EE0FE6
:10058000FF1F0590F491E02D0994DC0101C06D93EB
:1005900041505040E0F7089510E0CDE5D0E004C0B0
:1005A000FE010E94BF022196CE35D107C9F7F8940B
:0205B000FFCF7B
:107C00000C94343E0C941D3F0C941D3F0C941D3F6E
:107C10000C941D3F0C941D3F0C941D3F0C941D3F74
:107C20000C941D3F0C941D3F0C941D3F0C941D3F64
:107C30000C941D3F0C941D3F0C941D3F0C941D3F54
:107C40000C941D3F0C941D3F0C941D3F0C941D3F44
:107C50000C941D3F0C941D3F0C941D3F0C941D3F34
:107C60000C941D3F0C941D3F11241FBECFEFD8E094
:107C7000DEBFCDBF0E943E3E0C946B3F0F92CDB74E
:107C8000DEB7112484B714BE982F9D7011F00E94A6
:107C90004E3F82E08093C00088E18093C10086E07F
:107CA0008093C20080E18093C4008EE00E94323F46
:107CB0002224332443E0942E7724739435E0632EFA
:107CC00021E1522E0E94263F813491F40E94263FEA
:107CD00089830E94383F8981823811F482E005C08F
:107CE000813811F486E001C083E00E941F3FA1C0EB
:107CF000823411F484E103C0853421F485E00E94CC
:107D0000443F97C0853569F40E94263F282E3324CE
:107D10000E94263FB82EAA242A283B28220C331C76
:107D200086C0863529F484E00E94443F80E0DDCFA0
:107D3000843609F048C00E94263F0E94263F882EC4
:107D40000E94263FE82E00E011E00E94263FF80145
:107D500081938F018E16C9F70E94383FFE2DF534AE
:107D600081F48101E12C81E0F82E08C0C8010F5F89
:107D70001F4FF70161917F010E945D3F8E14B1F7A3
:107D800058C0F10197BEE89507B600FCFDCFF101A0
:107D9000A0E0B1E08C9190E01196DC901197CC249A
:107DA0008C299D2912960C0177BEE89511243296F4
:107DB0008A1681F7F10167BEE89507B600FCFDCF92
:107DC00057BEE89536C0843709F50E94263F0E94C9
:107DD000263FE82E0E94263F89830E94383F8981F2
:107DE000853459F48101C8010F5F1F4F0E94553F30
:107DF0000E941F3FEA94B9F71CC08101F8018591E8
:107E00008F010E941F3FEA94C9F713C0853751F4D0
:107E10000E94383F8EE10E941F3F85E90E941F3F6C
:107E20008FE063CF813519F488E00E94323F0E94D1
:107E3000383F80E10E941F3F45CF0C94003E909157
:107E4000C00095FFFCCF8093C60008958091C000CC
:107E500087FFFCCF8091C00084FD01C0A895809170
:107E6000C6000895E0E6F0E098E1908380830895ED
:107E70000E94263F803221F088E00E94323FFFCFEF
:107E800084E10E941F3F08951F93182F0E94263FF0
:107E90001150E1F70E94383F1F910895282E80E08D
:107EA0000E94323FEE27FF270994F999FECF92BD39
:107EB00081BDF89A992780B50895262FF999FECFAC
:107EC0001FBA92BD81BD20BD0FB6F894FA9AF99AF7
:0A7ED0000FBE01960895F894FFCF4D
:027FFE00020679
:0400000300007C007D
:00000001FF

