:100000000C945E000C9486000C9486000C94860080
:100010000C9486000C9486000C9486000C94860048
:100020000C9486000C9486000C9486000C94860038
:100030000C9486000C9486000C9486000C94860028
:100040000C945E030C9486000C947F020C9459026D
:100050000C9486000C9486000C9486000C94860008
:100060000C9486000C948600000000080002010039
:100070000003040700000000000000000000000072
:10008000240027002A0001020408102040800102F9
:1000900004081020010204081020000000002500C0
:1000A00028002B00040404040404040402020202D5
:1000B00002020303030303038C0A840A11241FBEF4
:1000C000CFEFD8E0DEBFCDBF11E0A0E0B1E0E0EFC0
:1000D000F6E102C005900D92A036B107D9F723E0F2
:1000E000A0E6B1E001C01D92A430B207E1F710E034
:1000F000CDE5D0E004C02197FE010E94590BCC351C
:10010000D107C9F70E9450050C946B0B0C940000AA
:10011000CF92DF92EF92FF920F931F93CF93DF93D3
:100120006C017A018B01C0E0D0E0CE15DF0589F0CB
:10013000D8016D918D01D601ED91FC910190F08176
:10014000E02DC6010995892B11F47E0102C021968C
:10015000ECCFC701DF91CF911F910F91FF90EF90EE
:10016000DF90CF900895089580E090E00895FC011D
:10017000538D448D252F30E0842F90E0821B930B0C
:10018000541710F0CF96089501970895FC01918DB2
:10019000828D981761F0828DDF01A80FB11D5D96E9
:1001A0008C91928D9F5F9F73928F90E008958FEF57
:1001B0009FEF0895FC01918D828D981731F0828D0B
:1001C000E80FF11D858D90E008958FEF9FEF089562
:1001D000FC01918D228D892F90E0805C9F4F821BC6
:1001E00091098F73992708958EE192E00E94E800AB
:1001F00021E0892B09F420E0822F0895FC01848DF1
:10020000DF01A80FB11DA35ABF4F2C91848D90E040
:1002100001968F739927848FA689B7892C93A0891B
:10022000B1898C9180648C93938D848D981306C0D2
:100230000288F389E02D80818F7D80830895EF927D
:10024000FF920F931F93CF93DF93EC0181E0888F90
:100250009B8D8C8D981305C0E889F989808185FD77
:1002600024C0F62E0B8D10E00F5F1F4F0F73112768
:10027000E02E8C8DE8120CC00FB607FCFACFE8898F
:10028000F989808185FFF5CFCE010E94FE00F1CF74
:100290008B8DFE01E80FF11DE35AFF4FF0820B8FAB
:1002A000EA89FB898081806207C0EE89FF896083CB
:1002B000E889F98980818064808381E090E0DF9122
:1002C000CF911F910F91FF90EF900895CF93DF93FF
:1002D000EC01888D8823C9F0EA89FB89808185FD3E
:1002E00005C0A889B9898C9186FD0FC00FB607FC9F
:1002F000F5CF808185FFF2CFA889B9898C9185FFE0
:10030000EDCFCE010E94FE00E7CFDF91CF9108959F
:1003100080E090E0892B29F00E94F40081110C9478
:10032000000008952FB7F894609161017091620107
:1003300080916301909164012FBF089590ED980F13
:100340009A3060F09FEB980F963010F48753089521
:100350009FE9980F963020F487550895892F0895C6
:100360008FEF08951F93CF93DF93EC0188810E9454
:100370009E01182F89810E949E0190E1199F800D96
:100380001124DF91CF911F9108950F931F93CF9365
:100390008C010E94B201C82FC80102960E94B201CE
:1003A0002C2F30E0322F2227A901480F511DCA01FE
:1003B000CF911F910F910895FB01292F3327A90198
:1003C00034E0559547953A95E1F74A30510510F4D8
:1003D000405D01C0495C40832F702A3010F4205DDD
:1003E00001C0295C21839C01332794E03595279532
:1003F0009A95E1F72A30310514F4205D01C0295C9B
:100400002283982F9F709F012C5F3F4F9A3010F4EA
:10041000905D01C0995C93831482C9010895282FCF
:1004200030E094E0359527959A95E1F72A3031052B
:1004300014F4205D01C0295CFB012083982F9F707C
:100440009B012E5F3F4F9A3010F4905D01C0995C84
:10045000FB019183C9010895CF93C82F892F0E9472
:100460000F02BC018C2FCF910C940F02FF920F93BF
:100470001F93CF93DF93182F062FF42E80937701CD
:100480006093760140937501C0E0D0E02F2D402F9E
:10049000612FCE010E9446042196CC30D105B1F7E0
:1004A000DF91CF911F910F91FF900C9478040E94DF
:1004B0005F0B1F920F920FB60F9211242F933F9351
:1004C0004F935F936F937F938F939F93AF93BF935C
:1004D000EF93FF938EE192E00E94FE00FF91EF9177
:1004E000BF91AF919F918F917F916F915F914F914C
:1004F0003F912F910F900FBE0F901F9018951F9254
:100500000F920FB60F9211242F938F939F93EF9317
:10051000FF93E0912E02F0912F028081E09134024E
:10052000F091350282FD12C09081809137028F5F79
:100530008F7320913802821751F0E0913702F0E07A
:10054000E25EFD4F958F8093370201C08081FF915D
:10055000EF919F918F912F910F900FBE0F901F9051
:10056000189590E0FC01E859FF4F3491FC01EA57DF
:10057000FF4F2491FC01EC55FF4FE491EE2309F469
:100580003BC0332339F1333091F038F43130A9F0E6
:10059000323001F584B58F7D12C0373091F038309C
:1005A000A1F03430B9F4809180008F7D03C0809138
:1005B00080008F77809380000DC084B58F7784BDD5
:1005C00009C08091B0008F7703C08091B0008F7D0B
:1005D0008093B000F0E0EE0FFF1FE656FF4FA591AD
:1005E000B4918FB7F894EC91611103C020952E233C
:1005F00001C02E2B2C938FBF0895CF93DF9390E0F3
:10060000FC01EA57FF4F2491FC01EC55FF4F849108
:10061000882361F190E0880F991FFC01E458FF4F97
:10062000C591D491FC01E656FF4FA591B49161119B
:1006300009C09FB7F8948881209582238883EC9124
:100640002E230BC0623061F49FB7F8943881822F5B
:10065000809583238883EC912E2B2C939FBF06C01B
:100660008FB7F894E8812E2B28838FBFDF91CF912D
:1006700008953FB7F8948091650190916601A0912B
:100680006701B091680126B5A89B05C02F3F19F0FE
:100690000196A11DB11D3FBFBA2FA92F982F882702
:1006A000820F911DA11DB11DBC01CD0142E0660F5D
:1006B000771F881F991F4A95D1F708951F920F92AF
:1006C0000FB60F9211242F933F938F939F93AF9365
:1006D000BF938091610190916201A0916301B091FB
:1006E00064013091600123E0230F2D3720F401963F
:1006F000A11DB11D05C026E8230F0296A11DB11D45
:10070000209360018093610190936201A093630143
:10071000B09364018091650190916601A091670199
:10072000B09168010196A11DB11D80936501909360
:100730006601A0936701B0936801BF91AF919F914B
:100740008F913F912F910F900FBE0F901F90189592
:1007500008958EBD00000DB407FEFDCF8EB508953F
:100760008CBD9DBD0895CF93DF9382E591E00E94FB
:10077000B003CBEBD2E060E08E810E94B10288EE44
:100780000E94A9038FEF0E94A90390E099838883B8
:100790008FEF0E94A90328813981382B3983288360
:1007A0008FEF0E94A90390E09B838A838FEF0E94C2
:1007B000A9032A813B81382B3B832A838FEF0E9438
:1007C000A90390E09D838C838FEF0E94A9032C8165
:1007D0003D81382B3D832C8361E08E810E94B102E4
:1007E000DF91CF910C94A8030F931F93CF93DF93C6
:1007F000082F162F82E591E00E94B003CBEBD2E0E8
:1008000060E08E810E94B102802F8F770E94A90341
:10081000812F0E94A90361E08E810E94B102DF91C5
:10082000CF911F910F910C94A8031F93CF93DF9347
:10083000182F82E591E00E94B003CBEBD2E060E09C
:100840008E810E94B102812F80680E94A90380E0FE
:100850000E94A903182F61E08E810E94B1020E94BC
:10086000A803812FDF91CF911F910895CF938EE23E
:100870000E941504C82FCF736C2F8EE20E94F403E0
:100880006C2F60648EE2CF910C94F403E091C4026B
:10089000F091C5028E179F0750F53091FC025091E0
:1008A000F902351308C0FC01EE0FFF1F8E0F9F1FCA
:1008B00087539D4F0AC0880F991F880F991F875330
:1008C0009D4FFC01E30FF11D10823091F902FC01F4
:1008D000E30FF11D60833091FA02FC01E30FF11D7B
:1008E00040833091FB02FC01E30FF11D208308954A
:1008F0000F931F93CF93DF93CDB7DEB727970FB634
:10090000F894DEBF0FBECDBF0E9439030091FD02F7
:100910001091FE022091FF0230910003DC01CB0117
:10092000801B910BA20BB30BC297A105B10560F31D
:10093000F8948091C6029091C7029A83898380912E
:10094000C9028F83E0910103F091020390818091AD
:100950000303982B9E839081809589238D838D81BD
:100960008C8388E08B835E816D814F813B812C81FC
:1009700089819A81AAECB2E0508347FD252F3A95F0
:100980002083262F39F0441F00C000006083000040
:1009900000C0F2CF38E04D9160830000019761F70D
:1009A000F0930203E09301034F833B832C839A83EC
:1009B000898378940E9439036093FD027093FE024C
:1009C0008093FF029093000327960FB6F894DEBF42
:1009D0000FBECDBFDF91CF911F910F91089500976A
:1009E00069F0FC0101900020E9F73197AF01481B45
:1009F000590BBC018EE192E00C94880080E090E0FD
:100A00000895CF93DF930E94EF04EC018DE291E013
:100A10000E94EF048C0F9D1FDF91CF9108958F925C
:100A20009F92AF92BF920F931F93CF93DF93CDB757
:100A3000DEB7A1970FB6F894DEBF0FBECDBF19A2E7
:100A4000423008F44AE08E010F5D1F4F842E912C36
:100A5000A12CB12CA50194010E94180BE62FB9011D
:100A6000CA0101501109EA3014F4E05D01C0E95CEB
:100A7000D801EC93232B242B252B61F7C8010E946E
:100A8000EF04A1960FB6F894DEBF0FBECDBFDF9185
:100A9000CF911F910F91BF90AF909F908F9008952D
:100AA000CF93DF93CDB7DEB769970FB6F894DEBF6B
:100AB0000FBECDBF789484B5826084BD84B581605B
:100AC00084BD85B5826085BD85B5816085BD809119
:100AD0006E00816080936E00109281008091810091
:100AE0008260809381008091810081608093810089
:100AF000809180008160809380008091B10084604B
:100B00008093B1008091B00081608093B0008091AB
:100B10007A00846080937A0080917A00826080936A
:100B20007A0080917A00816080937A0080917A00C7
:100B3000806880937A001092C10061E084E00E9496
:100B4000FD0260E084E00E94B102E0912E02F0918B
:100B50002F0282E08083E0912A02F0912B02108222
:100B6000E0912C02F0912D0280E1808310923602F8
:100B7000E0913202F091330286E08083E09130020E
:100B8000F0913102808180618083E0913002F091A8
:100B90003102808188608083E0913002F0913102DF
:100BA000808180688083E0913002F0913102808101
:100BB0008F7D808380E090E00E94E60A80930C02A3
:100BC0008DE191E00E94EF0460910C0270E080E002
:100BD00090E04AE00E940F058DE291E00E94EF0450
:100BE0008091C80287FD08C061E00E94FD0260E0BC
:100BF0008091C8020E94B10281E08093C30261E04B
:100C00008091C1020E94B10261E08091C1020E9404
:100C1000FD021FB7F89480916901811127C0EEEAA7
:100C2000F0E08491E0E9F0E09491E82FF0E0EE0F3D
:100C3000FF1FE458FF4FA591B491EC91E92321F4F3
:100C400061E08AE00E94B10261E08AE00E94FD0258
:100C50008CB580618CBD8CB580648CBD61E08DE00D
:100C60000E94FD0261E08BE00E94FD02809169011B
:100C70008F5F809369011FBF8FE00E94150483334B
:100C800009F03DC467E080E20E94F40380E20E9424
:100C900015048F70682F606580E20E94F40368E895
:100CA00083E20E94F40360E08FE10E94F40380E39A
:100CB00091E00E94010583E20E9415048F7C682F59
:100CC000606183E20E94F4038EE391E00E94EF04EE
:100CD00083E20E94150490E014E0959587951A959B
:100CE000E1F78370992762E070E002C0660F771F1A
:100CF0008A95E2F7072E000C880B990B4AE00E94B8
:100D00000F0587E491E00E9401058EE20E94150420
:100D10008072682F64658EE20E94F40384E20E9470
:100D20001504682F606484E20E94F4038FE20E943D
:100D3000150485FD03C00E94B303F8CF0E9436045A
:100D400061E087E00E94FD0261E088E00E94FD0210
:100D5000B0E12B2E0E9492012B013C0180911D02DB
:100D6000811180C08091190290911A02A0911B02FA
:100D7000B0911C02A3019201281B390B4A0B5B0B9B
:100D80002A3031054105510508F46CC04091C60276
:100D90005091C70260E070E089EC92E00E94640B21
:100DA0000091170210911802003411058CF4D02E16
:100DB000E12CF12C2D2D4D2D6D2DC7010E944604E7
:100DC00032E0E30EF11C4CE0E416F10499F73AC06E
:100DD00000381105ECF48FE7D82ED01AA0ECCA2EFB
:100DE000C00EE12CF12C2D2D4D2D6D2DC7010E9433
:100DF00046042C2D4C2D6C2DC70101960E944604F3
:100E000052E0E50EF11C8CE0E816F10461F71AC01F
:100E1000003C1105A4F48FEBD82ED01AEE24E394F5
:100E2000F12C2D2D4D2D6D2DC7010E94460492E011
:100E3000E90EF11CADE0EA16F10499F703C081E078
:100E400080931D020E9478040F5F1F4F10931802B9
:100E5000009317024092190250921A0260921B02EC
:100E600070921C028091130290911402A0911502BD
:100E7000B0911602A3019201281B390B4A0B5B0BA0
:100E8000243131054105510508F44DC18FE20E941E
:100E90001504082F007611E085FD2DC10E94B303D3
:100EA0008091BB029091BC022091110230911202FC
:100EB000821B930B9093BC028093BB022091BD02D6
:100EC0003091BE0240910F0250911002241B350B4D
:100ED0003093BE022093BD0260910501709106011E
:100EE0004091720150917301461B570B48175907E7
:100EF0002CF0509373014093720104C090937301DE
:100F0000809372014091700150917101460F571FFB
:100F1000841795072CF0509371014093700104C021
:100F2000909371018093700140916E0150916F0117
:100F3000461B570B421753072CF050936F014093F9
:100F40006E0104C030936F0120936E0140916C01DB
:100F500050916D01460F571F241735072CF0509301
:100F60006D0140936C0104C030936D0120936C01BE
:100F70004091720150917301E0917001F091710103
:100F800060916E0170916F01A0916C01B0916D0143
:100F90006A1B7B0B4E1B5F0B461757070CF4AB010C
:100FA00060910001623018F0623061F01DC0609104
:100FB00003017091040164177507B4F442E0409393
:100FC000000112C0609103017091040177FF02C01B
:100FD000695F7F4FE3E075956795EA95E1F74617FE
:100FE000570714F41092000197FF03C09195819563
:100FF000910937FF03C03195219531098217930775
:101000000CF4C90120910101309102012817390720
:1010100044F480916B018F5F80936B0110926A01A1
:1010200010C037FF02C02F5F3F4F359527958217BD
:1010300093073CF480916A018F5F80936A0110925C
:101040006B019091000180916A01923099F080319A
:1010500030F010926A0110926B01109200018091A1
:101060006B01803188F010926A0110926B0110932D
:1010700000010AC0813110F020926A0180916B0159
:10108000813110F020926B018091000180930E025B
:1010900080910D02882359F153E55983BE016E5F9B
:1010A0007F4F80910C020E940F02BC018091BB0215
:1010B0009091BC020E942C02BC018091BD029091D3
:1010C000BE020E942C02BC018091BF029091C0021E
:1010D0000E94DC01EAE0DC01EC9311961C9261E0D5
:1010E00084E00E94B102CE0101960E94EF048FE2DB
:1010F0000E941504D1CE8EE192E00E94660160E06C
:1011000084E00E94B102002331F089E491E00E9462
:1011100001050E943604409213025092140260921C
:1011200015027092160280910B02882309F482C086
:1011300080911D02882309F47DC00E9492012091B4
:10114000070230910802621B730B20910302309159
:10115000040240910502509106022D8B3E8B4F8B6D
:10116000588F6B01E12CF12C609102021091010269
:1011700030900002C216D306E406F50628F010925D
:101180000B02062F432D52C00091FF01802E912C9F
:10119000A12CB12C862F90E0A0E0B0E0BC01CD01E5
:1011A000681979098A099B09A70196010E94490BD0
:1011B0002D893E894F89588D0E94EE0A022F080D15
:1011C0008090FE01912CA12CB12C812F90E0A0E009
:1011D000B0E0BC01CD01681979098A099B09A70112
:1011E00096010E94490B2D893E894F89588D0E9496
:1011F000EE0A122F180D8090FD01912CA12CB12C1C
:10120000832D90E0A0E0B0E0BC01CD016819790920
:101210008A099B09A70196010E94490B2D893E89E5
:101220004F89588D0E94EE0A422F480D612F802F62
:101230000E94360280910D028823F9F08091F90115
:101240009091FA01A091FB01B091FC01A3019201E0
:10125000281B390B4A0B5B0BDA01C90140910701CE
:10126000509108016091090170910A018417950756
:10127000A607B70714F010920D028091F801882399
:1012800009F416C189E791E00E94B201E8E7F1E0B4
:1012900001900020E9F73197E857F14090917801EB
:1012A000933541F5E53009F0FDC090910C028913AA
:1012B000F9C00E9492016093F9017093FA01809342
:1012C000FB019093FC018BE791E00E94B201889FA3
:1012D00090011124A4E6B0E00E943A0B609307014C
:1012E000709308018093090190930A0181E0809333
:1012F0000D02D8C09C3409F5E93009F0D3C09091B3
:101300000C028913CFC08BE791E00E94B201182F25
:101310008DE791E00E94B201682F8FE791E0698F1D
:101320000E94B20190911D02698D992309F4BAC0FF
:10133000482F812F0E943602B5C0963409F041C073
:10134000ED3009F0AFC090910C028913ABC08BE770
:1013500091E00E94B201809302028DE791E00E9429
:10136000B201809301028FE791E00E94B201809365
:101370000002809177018093FF0180917601809334
:10138000FE01809175018093FD0181E891E00E944A
:10139000C501A0E0B0E08093030290930402A09303
:1013A0000502B09306020E949201609307027093B7
:1013B00008028093090290930A0281E080930B0255
:1013C00071C09534B1F5E33009F06CC020910C0286
:1013D000821368C09983BE016E5F7F4F0E940F0227
:1013E000BC0180910E020E940F02BC018091BB02E1
:1013F0009091BC020E942C02BC018091BD02909190
:10140000BE020E94DC01EAE0DC01EC9311961C9222
:1014100061E084E00E94B102CE0101960E94EF04D7
:101420008EE192E00E94660160E084E00E94B102D9
:1014300039C09035F9F4EF30A9F590910C02891379
:1014400031C08BE791E00E94C50190930601809323
:1014500005018FE791E00E94C501909304018093FC
:10146000030183E891E00E94C501909302018093FB
:10147000010118C09F34B1F4EB30A1F490910C023B
:10148000891310C08BE791E00E94C501909312026E
:10149000809311028FE791E00E94C50190931002A2
:1014A00080930F0210927401109278011092F8014B
:1014B00011E08EE192E00E94E800892BE9F08EE1D4
:1014C00092E00E94C600909174018A3011F08D3034
:1014D00041F41093F801E92FF0E0E858FE4F108234
:1014E00007C09F3330F7E92FF0E0E858FE4F8083C4
:1014F0009F5F90937401DDCF0E9488012BCC82E521
:1015000091E00E940105FFCF8091C80287FD03C0D2
:1015100060E00C94FD020895EEE1F2E01382128285
:1015200088EE93E0A0E0B0E084839583A683B78340
:101530008FE091E09183808385EC90E095878487AC
:1015400084EC90E09787868780EC90E0918B808B8D
:1015500081EC90E0938B828B82EC90E0958B848B76
:1015600086EC90E0978B868B118E128E138E148EE4
:10157000E2ECF2E0118213AE14AE15AE16AE8CE0C2
:1015800090E09383828381E082AF87AB10AE82E0EC
:1015900081AF84E290E09583848381E18683E5EBEB
:1015A000F0E0E491F0E0EE0FFF1FE656FF4F85916B
:1015B00094919093020380930103E7E9F0E0E491B2
:1015C000E09303038AE08093C1020895F999FECF66
:1015D00092BD81BDF89A992780B50895052E97FB95
:1015E0001EF400940E94050B57FD07D00E94180BB3
:1015F00007FC03D04EF40C94050B509540953095A4
:1016000021953F4F4F4F5F4F08959095809570956E
:1016100061957F4F8F4F9F4F08950E943A0BA59F72
:10162000900DB49F900DA49F800D911D11240895DD
:10163000A1E21A2EAA1BBB1BFD010DC0AA1FBB1FD6
:10164000EE1FFF1FA217B307E407F50720F0A21B48
:10165000B30BE40BF50B661F771F881F991F1A94B5
:1016600069F760957095809590959B01AC01BD01DF
:10167000CF010895A29FB001B39FC001A39F700D39
:10168000811D1124911DB29F700D811D1124911D8A
:101690000895DB018F939F930E940D0BBF91AF9133
:1016A000A29F800D911DA39F900DB29F900D1124BC
:1016B0000895EE0FFF1F0590F491E02D099481E04D
:1016C00090E0F8940C946B0BDC0101C06D934150D9
:1016D0005040E0F7089510E0CDE5D0E004C0FE01F1
:1016E0000E94590B2196CE35D107C9F7F894FFCF48
:1016F0000280010003200010270000000000001FEE
:10170000018800B7006601E800C600DA00525334D1
:10171000383520416464726573733A20000D0A0005
:101720004C495333444820666F756E642100526102
:101730006E6765203D200047004649464F204552D0
:101740005200436F756C646E742073746172740020
:00000001FF
